AFLY00RZ 0101709
HFDTE160515
HFFXA010
HFPLTPILOT:Mimo Moratti    
HFCM2CREW2:NKN
HFGTYGLIDERTYPE:Ozone Delta2    
HFGIDGLIDERID:29379           
HFDTM100GPSDATUM:WGS84
HFRFWFIRMWAREVERSION: 1.1.00 FR
HFRHWHARDWAREVERSION:1.00
HFFTYFRTYPE:Flytec ,Element
HFGPS:FASTRAX,IT430,48
HFPRSPRESSALTSENSOR:INTERSEMA,MS5401BM,12000
HFALGALTGPS:GEO
HFALPALTPRESSURE:ISA
HFTZNUTCOFFSET:  2.00h
I033638FXA3940SIU4143TAS
F134432
B1344320000000N00000000EV009760000000000000
F134438020612242529
E134438STA
E134438ATS1023.5
LFLYA1 01074
B1344384708714N00831891EA009780107501206000
B1344434708689N00831888EA009760107501306000
B1344484708661N00831890EA009760107401206000
F1344530212242529
B1344534708634N00831895EA009750107401005000
F13445802061214242529
B1344584708612N00831902EA009710107300807000
B1345034708589N00831900EA009630107100907000
B1345084708567N00831899EA009600106800607000
B1345134708545N00831897EA009630106600707000
B1345184708520N00831904EA009650106700707000
B1345234708495N00831922EA009660106600807000
B1345284708469N00831935EA009580106200607000
B1345334708442N00831937EA009480105700707000
B1345384708417N00831940EA009400105000807000
B1345434708390N00831943EA009360104400907000
B1345484708366N00831953EA009440104300807000
B1345534708347N00831939EA009390103901007000
B1345584708331N00831919EA009380103600707000
B1346034708308N00831914EA009440103900707000
B1346084708301N00831892EA009480104100907000
B1346134708319N00831898EA009510104400707000
B1346184708313N00831937EA009520104701007000
B1346234708287N00831931EA009570105001307000
B1346284708296N00831911EA009620105401107000
B1346334708312N00831930EA009580105600907000
B1346384708293N00831960EA009520105401407000
B1346434708283N00831940EA009550105500807000
F134648020614242529
B1346484708295N00831925EA009560105501306000
F13465302061214242529
B1346534708314N00831912EA009500105401007000
B1346584708335N00831900EA009450105000907000
B1347034708355N00831893EA009400104600807000
B1347084708376N00831885EA009400104300807000
B1347134708392N00831877EA009400104200807000
B1347184708413N00831866EA009320103900807000
B1347234708435N00831856EA009250103400907000
B1347284708458N00831847EA009190102800807000
B1347334708480N00831840EA009140102300807000
B1347384708502N00831835EA009060101700807000
B1347434708521N00831821EA009010101200907000
B1347484708540N00831801EA009010100801007000
B1347534708559N00831786EA009020100700807000
B1347584708577N00831772EA009080100701007000
B1348034708595N00831760EA009030100500707000
B1348084708613N00831746EA008960100101007000
B1348134708633N00831734EA008960099900907000
B1348184708648N00831720EA008970099900707000
B1348234708665N00831705EA009010100000707000
B1348284708683N00831690EA009040100100707000
B1348334708699N00831676EA009090100400707000
B1348384708712N00831658EA009130100700707000
B1348434708732N00831674EA009150100801107000
B1348484708724N00831713EA009220101200907000
B1348534708700N00831710EA009290101700907000
B1348584708705N00831690EA009320102101007000
B1349034708727N00831700EA009360102501107000
B1349084708731N00831739EA009430103201207000
B1349134708704N00831746EA009470103801107000
B1349184708706N00831724EA009550104501107000
B1349234708727N00831739EA009600105101007000
B1349284708713N00831773EA009640105600907000
B1349334708693N00831757EA009700106101307000
B1349384708708N00831755EA009770106801207000
B1349434708710N00831797EA009850107600907000
B1349484708684N00831803EA009880108101007000
B1349534708684N00831782EA009930108301207000
B1349584708707N00831806EA009990108901007000
B1350034708692N00831835EA010030109201107000
F135008020612142425
B1350084708674N00831817EA010040109501606000
F13501302061214242529
B1350134708690N00831810EA010070109900907000
B1350184708701N00831847EA010110110201007000
B1350234708677N00831867EA010150110701107000
B1350284708666N00831840EA010150111001007000
B1350334708685N00831838EA010170111301207000
B1350384708694N00831875EA010180111400907000
B1350434708669N00831891EA010220111801207000
B1350484708671N00831865EA010230111901607000
B1350534708693N00831876EA010220112000907000
B1350584708692N00831917EA010230112300607000
B1351034708668N00831918EA010290112501107000
B1351084708671N00831892EA010350112801507000
B1351134708694N00831916EA010360113400907000
B1351184708676N00831945EA010360113500907000
B1351234708658N00831931EA010380113301307000
B1351284708671N00831913EA010460113300807000
B1351334708693N00831934EA010490113700907000
B1351384708679N00831969EA010480114000807000
B1351434708664N00831963EA010530114200807000
B1351484708669N00831942EA010560114400807000
B1351534708690N00831949EA010580114600607000
B1351584708697N00831991EA010570114701007000
B1352034708674N00831999EA010570114701607000
B1352084708673N00831976EA010600114901207000
B1352134708692N00831975EA010630115101107000
B1352184708698N00832017EA010610115201007000
B1352234708676N00832035EA010610115001007000
B1352284708665N00832015EA010620115101207000
B1352334708684N00832010EA010650115300907000
B1352384708694N00832051EA010630115300707000
F135243020612142429
B1352434708673N00832080EA010630115401006000
F13524802061214242529
B1352484708660N00832061EA010620115401107000
B1352534708681N00832058EA010640115501107000
B1352584708692N00832097EA010600115300907000
B1353034708685N00832148EA010580115100707000
B1353084708673N00832195EA010560114900807000
B1353134708659N00832240EA010560114700807000
B1353184708649N00832283EA010550114800507000
B1353234708640N00832324EA010560114700607000
B1353284708629N00832369EA010500114600707000
B1353334708621N00832416EA010450114200507000
B1353384708614N00832458EA010460113900707000
B1353434708606N00832504EA010400113400707000
B1353484708595N00832559EA010340112900707000
B1353534708590N00832613EA010320112600807000
B1353584708582N00832666EA010340112400707000
B1354034708570N00832715EA010320112201107000
B1354084708563N00832763EA010270111900807000
B1354134708556N00832812EA010180111300807000
B1354184708552N00832869EA010110110600707000
B1354234708540N00832926EA010020109700807000
B1354284708525N00832979EA009910108700707000
B1354334708513N00833031EA009790107700707000
B1354384708508N00833089EA009680106500707000
B1354434708499N00833144EA009600105600707000
B1354484708484N00833196EA009560105100607000
B1354534708473N00833244EA009600104900807000
B1354584708465N00833291EA009520104600607000
B1355034708454N00833339EA009380103900707000
B1355084708444N00833390EA009260102901007000
B1355134708439N00833443EA009160101600807000
B1355184708436N00833497EA009040100300607000
B1355234708434N00833550EA008940099000607000
B1355334708432N00833658EA008830097201107000
B1355384708433N00833709EA008810096900907000
B1355434708433N00833755EA008830097000807000
B1355484708432N00833802EA008830097100707000
B1355534708434N00833854EA008780097100707000
B1355584708436N00833900EA008790097000607000
B1356034708441N00833941EA008850097200707000
B1356084708445N00833987EA008860097500707000
B1356134708434N00834026EA008880097700507000
B1356184708420N00834061EA008880097700807000
B1356234708411N00834110EA008860097700507000
B1356284708404N00834155EA008850097600807000
B1356334708397N00834200EA008810097300607000
B1356384708388N00834242EA008770097100607000
B1356434708379N00834293EA008740096900707000
B1356484708375N00834341EA008770097000707000
B1356534708372N00834388EA008800097100607000
B1356584708349N00834403EA008810097301207000
B1357034708345N00834382EA008820097300907000
B1357084708362N00834395EA008840097400907000
B1357134708357N00834433EA008910097801007000
B1357184708332N00834438EA008880097801107000
B1357234708334N00834415EA008880098100907000
B1357284708352N00834424EA008870098200807000
B1357334708360N00834463EA008940098301307000
B1357384708336N00834481EA008910098401107000
B1357434708322N00834458EA008870098201507000
B1357484708340N00834455EA008900098201207000
B1357534708344N00834496EA008900098100807000
B1357584708329N00834524EA008880098101007000
B1358034708309N00834509EA008850097901307000
B1358084708315N00834491EA008910098101107000
B1358134708329N00834517EA008910098301107000
B1358184708304N00834530EA008910098401307000
B1358234708292N00834505EA008940098501107000
B1358284708309N00834500EA008950098601407000
B1358334708311N00834540EA008950098700807000
B1358384708287N00834558EA008980098901007000
B1358434708281N00834534EA008990099001307000
B1358484708299N00834541EA008990099101007000
B1358534708304N00834579EA008990099300707000
B1358584708286N00834609EA009020099400707000
B1359034708264N00834599EA009050099501107000
B1359084708279N00834590EA009080099701707000
B1359134708290N00834624EA009110100001007000
B1359184708266N00834648EA009100100000807000
B1359234708253N00834633EA009140100200807000
B1359284708265N00834623EA009160100400707000
B1359334708276N00834654EA009130100500907000
B1359384708256N00834680EA009090100401207000
B1359434708234N00834670EA009120100501107000
F1359480206121424252931
B1359484708236N00834650EA009130100500708000
B1359534708251N00834669EA009120100600808000
B1359584708240N00834709EA009110100500808000
B1400034708213N00834708EA009090100401108000
B1400084708216N00834689EA009080100201108000
B1400134708235N00834692EA009040100100508000
B1400184708254N00834692EA009090100100708000
B1400234708273N00834689EA009030099900408000
B1400284708294N00834687EA008980099700408000
B1400334708315N00834684EA008930099300708000
B1400384708334N00834682EA008850098800708000
B1400434708353N00834675EA008780098100608000
B1400484708372N00834666EA008730097600708000
B1400534708386N00834656EA008660096900708000
B1400584708403N00834647EA008590096000708000
B1401034708419N00834636EA008520095100708000
B1401084708434N00834623EA008420094100708000
B1401134708448N00834610EA008310093100808000
B1401184708466N00834604EA008230092100408000
B1401234708481N00834592EA008140091400508000
B1401284708471N00834565EA008040090400408000
B1401334708455N00834543EA007990089800508000
B1401384708437N00834520EA007890088800508000
B1401434708416N00834501EA007770087600708000
B1401484708388N00834499EA007710086900408000
B1401534708358N00834503EA007670086300408000
B1401584708325N00834515EA007680086100408000
B1402034708301N00834544EA007650085700508000
B1402084708280N00834586EA007590085200708000
B1402134708265N00834636EA007510084600608000
B1402184708249N00834686EA007460084100608000
B1402234708239N00834734EA007420083800708000
B1402284708242N00834785EA007370083300708000
B1402334708249N00834832EA007310082800708000
B1402384708260N00834871EA007250082100708000
B1402434708278N00834900EA007160081300608000
B1402484708296N00834923EA007080080600608000
B1402534708309N00834911EA006970079500608000
B1402584708315N00834889EA006880078400708000
B1403034708315N00834865EA006800077500708000
B1403084708313N00834843EA006740076600708000
B1403134708318N00834826EA006670076100508000
B1403184708325N00834810EA006590075600808000
B1403234708331N00834790EA006500074800808000
B1403284708339N00834773EA006450074400408000
B1403334708338N00834761EA006400074000408000
B1403384708335N00834757EA006400073900508000
F14034302061214242529
B1403434708335N00834756EA006400073800607000
B1403484708335N00834756EA006400073600907000
F1403530206121424252931
B1403534708335N00834757EA006400073500508000
B1403584708337N00834760EA006400073500508000
B1404034708337N00834761EA006400073400508000
B1404084708334N00834762EA006400073500408000
B1404134708334N00834762EA006400073500308000
B1404184708333N00834762EA006400073500408000
B1404234708333N00834762EA006400073500408000
B1404284708333N00834762EA006400073500408000
G4078412F24A60DD8BCD63EC0DA77109047DA6DD5310E90EED66AD8DCD4DDE645
