AFLY00RZ 0101709
HFDTE280515
HFFXA010
HFPLTPILOT:Mimo Moratti    
HFCM2CREW2:NKN
HFGTYGLIDERTYPE:Ozone Delta2    
HFGIDGLIDERID:29379           
HFDTM100GPSDATUM:WGS84
HFRFWFIRMWAREVERSION: 1.1.00 FR
HFRHWHARDWAREVERSION:1.00
HFFTYFRTYPE:Flytec ,Element
HFGPS:FASTRAX,IT430,48
HFPRSPRESSALTSENSOR:INTERSEMA,MS5401BM,12000
HFALGALTGPS:GEO
HFALPALTPRESSURE:ISA
HFTZNUTCOFFSET:  2.00h
I033638FXA3940SIU4143TAS
F122656
B1226560000000N00000000EV008980000000000000
F12272614152529
B1227264708889N00832145EA008970095802104000
F1227560614152529
B1227564708888N00832148EA008970095901005000
F1228260614152529
B1228264708888N00832147EA008980095500905000
F12285402061415172529
B1228544708882N00832127EA008950095600907000
E122857STA
E122857ATS1019.9
LFLYA1 00955
B1228574708879N00832108EA008940095300907000
B1229024708884N00832084EA008950094900907000
F1229070206141517242529
B1229074708903N00832058EA008900093900608000
B1229124708919N00832028EA008870093300808000
B1229174708936N00832003EA008840092800708000
B1229224708952N00831977EA008850092600708000
F122927020612141517242529
B1229274708955N00831958EA008900092900509000
B1229324708965N00831939EA008920093200609000
B1229374708984N00831922EA008920093200409000
B1229424709004N00831903EA008910093200509000
B1229474709026N00831887EA008920093200509000
B1229524709046N00831870EA008970093600509000
B1230024709042N00831834EA009070094400309000
B1230074709027N00831831EA009130095000609000
B1230174709037N00831888EA009320097200609000
B1230224709054N00831877EA009390098000509000
B1230274709048N00831859EA009440098600209000
B1230374709036N00831914EA009610100100509000
B1230424709059N00831931EA009730101200609000
B1230474709058N00831910EA009780101800509000
B1230524709039N00831921EA009920103100609000
B1231024709064N00831980EA010060104800809000
B1231074709076N00831964EA010110105100309000
B1231124709062N00831944EA010190105501109000
B1231174709042N00831952EA010330106400609000
B1231224709036N00831992EA010410107500709000
B1231274709060N00832013EA010450108200609000
B1231374709072N00831977EA010630110600509000
B1231424709056N00831967EA010750111700509000
B1231474709041N00831990EA010840112600509000
B1231524709058N00832014EA010960113800409000
F1232020206121415172425
B1232024709068N00831976EA011140115600408000
F123207020612141517242529
B1232074709047N00831987EA011130115400609000
B1232124709035N00832024EA011140115700409000
B1232174709050N00832059EA011200116200509000
B1232224709076N00832060EA011290117000609000
B1232274709076N00832036EA011360117500309000
B1232374709046N00832081EA011430118000509000
B1232424709066N00832113EA011450118300509000
B1232474709089N00832110EA011530119000509000
B1232524709089N00832088EA011600119500409000
B1233024709063N00832136EA011660120300509000
B1233074709085N00832165EA011690120800509000
B1233124709105N00832159EA011750121300409000
B1233174709127N00832155EA011830122200509000
B1233224709146N00832149EA011920123100509000
B1233274709143N00832131EA011960123200609000
B1233374709111N00832179EA012050124100609000
B1233424709110N00832229EA012100124600309000
B1233474709131N00832265EA012220125700609000
B1233524709155N00832258EA012270126400609000
B1234024709155N00832232EA012460128700409000
B1234074709140N00832262EA012480129100509000
B1234124709147N00832308EA012600130200409000
B1234174709172N00832329EA012680130900709000
B1234224709193N00832314EA012750131300609000
B1234274709193N00832294EA012790131600309000
B1234374709172N00832348EA012810132000409000
B1234424709175N00832398EA012880132700409000
B1234474709165N00832428EA012970133500809000
B1234524709143N00832427EA012990133600609000
B1235024709108N00832418EA012920133300609000
B1235074709089N00832416EA012940133300609000
B1235124709068N00832408EA012920133100709000
B1235174709041N00832406EA012860132600409000
B1235224709012N00832412EA012780132100409000
B1235274708987N00832401EA012670130900509000
B1235324708967N00832390EA012600130100409000
B1235374708944N00832390EA012530129000409000
B1235424708924N00832375EA012420127800509000
B1235474708905N00832353EA012310126500509000
B1235524708888N00832334EA012260125700509000
B1235574708871N00832314EA012190125100509000
B1236024708856N00832292EA012130124600509000
B1236074708840N00832270EA012070124000509000
B1236124708823N00832249EA012000123300509000
B1236174708805N00832228EA011900122400509000
B1236224708787N00832210EA011810121400509000
B1236274708771N00832188EA011690120200509000
B1236324708752N00832165EA011580119200509000
B1236374708734N00832143EA011470118000609000
B1236424708713N00832123EA011400117400309000
B1236474708692N00832104EA011350117000609000
B1236524708670N00832085EA011330116800609000
B1236574708650N00832071EA011400117300409000
B1237024708635N00832066EA011400117200409000
B1237074708611N00832061EA011320116600509000
B1237124708588N00832052EA011180115100309000
B1237174708564N00832040EA011080113800609000
B1237224708540N00832023EA010950112500509000
B1237274708513N00832009EA010850111500509000
B1237324708484N00831995EA010770110800509000
B1237374708458N00831976EA010720110300509000
B1237424708434N00831965EA010720110500509000
B1237474708409N00831971EA010770110900709000
B1237524708388N00831986EA010890111900409000
B1237574708382N00831966EA010930112300909000
B1238024708398N00831985EA010960112600709000
B1238074708376N00832018EA010990112800609000
B1238124708351N00832021EA010960112800409000
B1238174708337N00832009EA010910112600609000
B1238224708334N00831984EA010810111900709000
B1238274708334N00831962EA010760111200609000
B1238324708335N00831941EA010710110700609000
B1238374708340N00831924EA010660110100609000
B1238474708394N00831925EA010560108900709000
B1238524708421N00831922EA010580108800609000
B1238574708447N00831914EA010610109000509000
B1239024708474N00831909EA010600109100609000
B1239074708497N00831912EA010690110000609000
B1239124708512N00831946EA010760110900309000
B1239174708497N00831954EA010890112100309000
B1239224708494N00831933EA010970112900609000
B1239274708518N00831941EA011000113300709000
B1239324708518N00831983EA011080113900809000
B1239374708499N00831983EA011190115200909000
F1239420206121417242529
B1239424708508N00831964EA011210115300608000
B1239474708527N00831995EA011240115700508000
B1239524708516N00832026EA011330116600708000
B1239574708502N00832019EA011400117200608000
B1240024708519N00832005EA011420117401408000
B1240074708534N00832045EA011440117601008000
B1240124708515N00832064EA011460117700408000
B1240174708492N00832060EA011510118200608000
B1240224708479N00832047EA011580118900708000
B1240274708479N00832021EA011650119600608000
B1240324708500N00832012EA011740120600608000
B1240374708516N00832043EA011790121000508000
B1240424708498N00832062EA011820121400708000
B1240474708480N00832054EA011900122200708000
B1240524708479N00832033EA011960122800608000
B1240574708497N00832030EA012030123400608000
B1241024708516N00832060EA012080123900308000
B1241074708500N00832091EA012090124000508000
B1241124708477N00832089EA012130124500608000
B1241174708464N00832075EA012210125300408000
B1241224708455N00832063EA012300126200508000
B1241274708473N00832055EA012330126600808000
B1241324708486N00832098EA012360126801108000
B1241374708469N00832128EA012430127300708000
B1241424708451N00832132EA012490127700508000
B1241474708437N00832116EA012490127800808000
B1241524708433N00832092EA012410127500608000
B1241574708433N00832070EA012320126600608000
B1242024708434N00832042EA012190125400608000
B1242074708439N00832004EA012100124500508000
B1242124708446N00831960EA012030123600608000
B1242174708455N00831918EA012050123500908000
B1242224708461N00831903EA012170124300808000
B1242274708474N00831892EA012170124700608000
B1242324708482N00831867EA012220125200708000
B1242374708485N00831848EA012340126500708000
B1242424708467N00831840EA012420127300608000
B1242474708451N00831872EA012470127800708000
B1242524708466N00831904EA012520128200708000
B1242574708487N00831895EA012590129200608000
B1243024708493N00831876EA012690130400508000
B1243074708490N00831858EA012840132100508000
B1243124708476N00831861EA012990133700508000
B1243174708458N00831895EA013100134500608000
B1243224708456N00831935EA013230135400708000
B1243274708481N00831950EA013250135800708000
B1243324708496N00831935EA013340136900708000
B1243374708503N00831907EA013440138100608000
B1243424708502N00831886EA013610139800508000
B1243474708486N00831879EA013740140900508000
B1243524708474N00831916EA013810141800808000
B1243574708494N00831959EA013900142600808000
B1244024708518N00831964EA014020143700508000
B1244074708531N00831944EA014130145000608000
B1244124708527N00831936EA014160145400708000
B1244174708511N00831952EA014210146200808000
B1244224708516N00831998EA014310147000808000
B1244274708541N00832016EA014410147700708000
B1244324708563N00832006EA014450148100808000
B1244374708560N00832002EA014310147600608000
B1244424708540N00832001EA014250147200808000
B1244474708524N00832015EA014240146700608000
B1244524708524N00832057EA014230146500608000
B1244574708539N00832102EA014290146700408000
B1245024708563N00832097EA014310146800708000
B1245074708554N00832092EA014310147000808000
B1245124708533N00832105EA014310147000508000
B1245174708520N00832121EA014380147300808000
B1245224708504N00832116EA014350147400808000
B1245274708485N00832122EA014290147000908000
B1245324708453N00832123EA014200146300808000
B1245374708423N00832130EA014140145500808000
B1245424708391N00832133EA014060144600608000
B1245474708361N00832136EA013980143900708000
B1245524708330N00832140EA013900142800708000
B1245574708297N00832146EA013810141800608000
B1246024708264N00832152EA013700140800608000
B1246074708230N00832155EA013560139300608000
B1246124708195N00832156EA013440138000408000
B1246174708159N00832165EA013380137200308000
B1246224708123N00832173EA013350136900608000
B1246274708094N00832183EA013290136400508000
B1246324708062N00832195EA013220135900708000
B1246374708032N00832208EA013170135400608000
B1246424707999N00832218EA013060134500708000
B1246474707969N00832229EA012950133600408000
B1246524707941N00832230EA012810132200708000
B1246574707915N00832222EA012680130800308000
B1247024707906N00832198EA012580129700608000
B1247074707917N00832175EA012490128700608000
B1247124707928N00832155EA012430127700708000
B1247174707941N00832130EA012320126700508000
B1247224707955N00832103EA012240125600808000
B1247274707961N00832081EA012220125200608000
B1247324707967N00832065EA012230125300808000
B1247374707967N00832043EA012130125000708000
B1247424707969N00832018EA012090124700408000
B1247474707975N00831990EA012100124700608000
B1247524707972N00831961EA012110124500608000
B1247574707967N00831933EA012040124200508000
B1248024707963N00831907EA011940123300608000
F12480702061214242529
B1248074707961N00831880EA011820121900607000
B1248124707979N00831866EA011680120300807000
B1248174708008N00831871EA011540118900707000
B1248224708040N00831876EA011420117500707000
B1248274708073N00831875EA011300116200507000
B1248324708106N00831872EA011200115100707000
B1248374708135N00831868EA011160114600707000
B1248424708163N00831861EA011120114300707000
B1248474708180N00831861EA011170114400807000
B1248524708194N00831845EA011120114400707000
B1248574708213N00831840EA011090114400707000
B1249024708236N00831839EA011110114500707000
B1249074708258N00831837EA011100114500807000
B1249124708282N00831839EA011040114100807000
B1249174708308N00831848EA010970113400807000
B1249224708336N00831854EA010860112300807000
B1249274708370N00831862EA010750111200707000
B1249324708402N00831868EA010630110000707000
B1249374708432N00831872EA010510108500707000
B1249424708464N00831874EA010370107100507000
B1249474708495N00831887EA010300106400707000
B1249524708522N00831881EA010340106500807000
B1249574708549N00831883EA010350106700607000
B1250024708572N00831879EA010420107100707000
B1250074708587N00831889EA010460107600607000
B1250124708610N00831898EA010420107500807000
B1250174708634N00831902EA010330107100807000
B1250224708660N00831912EA010230106300907000
B1250274708682N00831937EA010190105600707000
B1250324708707N00831960EA010140105000507000
B1250374708731N00831986EA010130104800807000
B1250424708747N00831995EA010150104800807000
B1250474708769N00832009EA010130104700707000
B1250524708792N00832025EA010110104500607000
B1250574708818N00832044EA010040104000707000
B1251024708839N00832070EA009990103600707000
B1251074708858N00832111EA009900103000707000
B1251124708873N00832149EA009830102300607000
B1251174708889N00832188EA009730101400707000
B1251224708906N00832230EA009630100200707000
B1251274708929N00832242EA009570099000707000
B1251324708944N00832227EA009460098000507000
B1251374708952N00832213EA009420097600607000
B1251424708965N00832205EA009360097200707000
B1251474708949N00832197EA009300096900807000
B1251524708933N00832180EA009210096401107000
B1251574708918N00832163EA009130095900707000
B1252024708899N00832152EA009120095600607000
B1252074708890N00832123EA009050095400907000
B1252124708904N00832116EA009110094901107000
B1252174708914N00832093EA009090094500807000
B1252224708921N00832067EA009040094200807000
B1252274708927N00832037EA008960093700807000
B1252324708939N00832002EA008870092900807000
B1252374708952N00831970EA008810092100607000
B1252424708965N00831948EA008830091800807000
B1252474708972N00831934EA008830091500907000
B1252524708982N00831914EA008760091300707000
B1252574708993N00831885EA008600090800707000
B1253024709011N00831865EA008560090000707000
B1253074709031N00831850EA008510089300607000
B1253124709054N00831832EA008440088600807000
B1253174709078N00831818EA008320087900707000
B1253224709103N00831796EA008250087000707000
B1253274709133N00831774EA008180086400807000
B1253324709161N00831763EA008280086400907000
B1253374709189N00831764EA008320086600807000
B1253424709212N00831756EA008370087100607000
B1253474709209N00831738EA008440087400907000
B1253524709195N00831770EA008440087400807000
B1253574709217N00831799EA008430087300907000
B1254024709234N00831797EA008440087500807000
B1254074709231N00831769EA008320087100907000
B1254124709223N00831744EA008340087000807000
B1254174709213N00831717EA008360087000807000
B1254224709202N00831695EA008470087300907000
B1254274709186N00831667EA008570088200807000
B1254324709171N00831648EA008640089100507000
B1254374709171N00831633EA008640089300807000
B1254424709188N00831660EA008700089600807000
B1254474709176N00831692EA008750089900907000
B1254524709156N00831687EA008740089800607000
B1254574709153N00831662EA008650089600807000
B1255024709136N00831638EA008600089500707000
B1255074709115N00831620EA008550088900707000
B1255124709127N00831596EA008430087700807000
B1255174709151N00831597EA008340087000707000
B1255224709171N00831623EA008370087000807000
B1255274709190N00831621EA008480087800707000
B1255324709204N00831644EA008530088000707000
B1255374709187N00831662EA008560088301407000
B1255424709188N00831628EA008610088801307000
B1255474709203N00831647EA008690089300707000
B1255524709191N00831676EA008730089701107000
B1255574709174N00831647EA008760090400907000
B1256024709190N00831631EA008840091200907000
B1256074709198N00831661EA008880091800607000
B1256124709179N00831674EA008940092201007000
B1256174709172N00831643EA009000092601107000
B1256224709194N00831650EA009030093201007000
B1256274709193N00831683EA009080093800907000
B1256324709173N00831678EA009160094500707000
B1256374709183N00831654EA009210094801007000
B1256424709201N00831673EA009250095400707000
B1256474709193N00831706EA009330096100807000
B1256524709177N00831686EA009400096701107000
B1256574709195N00831679EA009450096901107000
B1257024709197N00831716EA009490097600907000
B1257074709178N00831716EA009570098300807000
B1257124709180N00831686EA009570098601007000
B1257174709200N00831699EA009540098600607000
B1257224709205N00831740EA009560098900707000
B1257274709196N00831771EA009620099300707000
B1257324709178N00831758EA009640099600607000
B1257374709195N00831744EA009630099700707000
B1257424709201N00831781EA009640099800807000
B1257474709185N00831801EA009680100000607000
B1257524709174N00831780EA009700100400607000
B1257574709195N00831779EA009680100400707000
B1258024709208N00831815EA009720100600607000
B1258074709201N00831852EA009770101100607000
B1258124709180N00831867EA009780101200707000
B1258174709170N00831844EA009770101200807000
B1258224709192N00831840EA009760101200607000
B1258274709212N00831867EA009790101600507000
B1258324709205N00831898EA009880101800807000
B1258374709193N00831878EA009870102000907000
B1258424709208N00831854EA009890102300907000
B1258474709233N00831857EA009950102900807000
B1258524709233N00831894EA009980103000807000
B1258574709216N00831899EA010050103400807000
B1259024709216N00831867EA010080103700707000
B1259074709233N00831854EA010140104200807000
B1259124709249N00831885EA010120104200707000
B1259174709234N00831916EA010110104200807000
B1259224709215N00831906EA010150104600707000
B1259274709220N00831875EA010160104800707000
B1259324709241N00831871EA010190105100707000
B1259374709241N00831909EA010150105100607000
B1259424709225N00831926EA010240105600607000
B1259474709213N00831900EA010260106000907000
B1259524709232N00831891EA010230105900907000
B1259574709237N00831928EA010230105900607000
B1300024709219N00831959EA010270106100807000
B1300074709199N00831952EA010320106400607000
B1300124709202N00831926EA010290106400807000
B1300174709215N00831957EA010220106200707000
B1300224709198N00831984EA010230106000607000
B1300274709176N00831997EA010220105700807000
B1300324709153N00832016EA010150105200707000
B1300374709130N00832046EA010010103900607000
B1300424709105N00832075EA009900102800407000
B1300474709081N00832098EA009830101800707000
B1300524709059N00832129EA009770101300607000
B1300574709040N00832169EA009750101100407000
B1301024709034N00832216EA009730100900507000
B1301074709028N00832262EA009660100400507000
B1301124709005N00832280EA009580099800607000
B1301174708992N00832262EA009510098900507000
B1301224708993N00832235EA009440098100607000
B1301274708996N00832211EA009390097501207000
B1301324708973N00832210EA009310097000907000
B1301374708952N00832211EA009270096801107000
B1301424708942N00832184EA009200096400807000
B1301474708939N00832169EA009190096100807000
B1301524708925N00832164EA009140095700807000
B1301574708908N00832164EA009090095500507000
B1302024708902N00832162EA009090095301107000
B1302074708904N00832164EA009090095200707000
B1302124708904N00832165EA009090095200707000
B1302174708903N00832168EA009080095100907000
B1302224708903N00832166EA009080095000707000
B1302274708902N00832162EA009080094900907000
B1302324708900N00832159EA009090094900907000
B1302374708899N00832159EA009100094800907000
B1302424708899N00832159EA009100094700807000
B1302474708900N00832158EA009100094600607000
B1302524708900N00832159EA009100094600607000
B1302574708900N00832158EA009100094600707000
B1303024708900N00832158EA009100094600607000
B1303074708900N00832158EA009100094500607000
B1303124708900N00832158EA009100094500507000
B1303174708900N00832158EA009100094500407000
B1303224708900N00832158EA009090094500507000
B1303274708900N00832158EA009090094500507000
B1303324708900N00832158EA009090094500507000
GEF9CA4842AF3D679D059853873B1430AC164327B3739EB3CCE5B1FE055EB17BC
