AFLY00RZ 0101709
HFDTE280515
HFFXA010
HFPLTPILOT:Mimo Moratti    
HFCM2CREW2:NKN
HFGTYGLIDERTYPE:Ozone Delta2    
HFGIDGLIDERID:29379           
HFDTM100GPSDATUM:WGS84
HFRFWFIRMWAREVERSION: 1.1.00 FR
HFRHWHARDWAREVERSION:1.00
HFFTYFRTYPE:Flytec ,Element
HFGPS:FASTRAX,IT430,48
HFPRSPRESSALTSENSOR:INTERSEMA,MS5401BM,12000
HFALGALTGPS:GEO
HFALPALTPRESSURE:ISA
HFTZNUTCOFFSET:  2.00h
I033638FXA3940SIU4143TAS
F132308
B1323080000000N00000000EV008970000000000000
F13233814252931
B1323384708875N00832127EA008960096603204000
F13240802121424252931
B1324084708880N00832143EA008960095500807000
F13243802121424252931
B1324384708880N00832142EA008970095500407000
F13250802121424252931
B1325084708879N00832144EA008980095500507000
F132538021224252931
B1325384708879N00832142EA008990095500606000
F13255702121424252931
E132557STA
E132557ATS1019.5
LFLYA1 00953
B1325574708888N00832119EA008960095200907000
B1326024708899N00832096EA008930094900707000
B1326074708911N00832069EA008900094800607000
B1326124708918N00832041EA008930094700607000
B1326174708932N00832025EA008960094900307000
B1326224708950N00832024EA008910095000707000
B1326274708962N00831992EA008810094400707000
B1326324708973N00831962EA008780094100507000
B1326374708977N00831932EA008800093800607000
B1326424708984N00831912EA008800093400607000
B1326474708988N00831890EA008750093100607000
B1326524708998N00831867EA008690092600507000
B1326574709009N00831846EA008720092500607000
B1327024709015N00831825EA008810092700607000
B1327074709026N00831821EA008900093200507000
B1327124709033N00831858EA008980094000907000
B1327174709009N00831869EA009090095600907000
B1327224709004N00831853EA009170096300807000
B1327274709015N00831841EA009220096900707000
F1327320206121424252931
B1327324709028N00831827EA009270097500708000
B1327374709037N00831813EA009340097900608000
B1327424709051N00831840EA009330097900708000
B1327474709035N00831867EA009340098000808000
B1327524709022N00831854EA009400098400708000
B1327574709027N00831835EA009360098300708000
B1328024709036N00831814EA009310098000308000
B1328074709044N00831785EA009220097700708000
B1328124709054N00831768EA009170097300408000
B1328174709071N00831750EA009130097000608000
B1328224709089N00831732EA009110096800508000
B1328274709099N00831710EA009080096500408000
B1328324709093N00831685EA009080096300608000
B1328374709090N00831661EA009060095800508000
B1328424709099N00831634EA009020095400508000
B1328474709107N00831609EA009000095000508000
B1328524709109N00831585EA008970094700508000
B1328574709114N00831562EA008940094300508000
B1329024709120N00831540EA008890094000408000
B1329074709133N00831524EA008840093700508000
B1329124709148N00831509EA008790093400508000
B1329174709156N00831490EA008740092900308000
B1329224709154N00831470EA008700092400508000
B1329274709143N00831449EA008640091700508000
B1329324709133N00831434EA008610091000608000
B1329374709111N00831452EA008560090400508000
B1329424709118N00831500EA008540089900608000
B1329474709138N00831540EA008480089300608000
B1329524709165N00831563EA008450088600608000
B1329574709193N00831583EA008410088100508000
B1330024709221N00831603EA008340087500508000
B1330074709247N00831623EA008330087200508000
B1330124709274N00831632EA008290086900508000
B1330174709297N00831632EA008250086700508000
B1330224709321N00831626EA008180086200308000
B1330274709348N00831652EA008120085900508000
B1330324709369N00831677EA008190085900608000
B1330374709394N00831686EA008210086200508000
B1330424709418N00831702EA008260086500608000
B1330474709417N00831742EA008260086500808000
B1330524709404N00831733EA008330087100708000
B1330574709417N00831714EA008410087800508000
B1331024709438N00831741EA008400087400508000
B1331074709424N00831774EA008320086800808000
B1331124709404N00831794EA008430087500708000
B1331174709400N00831780EA008450087600608000
B1331224709424N00831794EA008460087800508000
B1331274709416N00831827EA008530088300608000
B1331324709399N00831830EA008540088300708000
B1331374709385N00831820EA008550088400608000
B1331424709369N00831813EA008570088500308000
B1331524709344N00831794EA008540088600408000
B1331574709324N00831787EA008520088400608000
B1332024709300N00831796EA008480088200608000
B1332074709277N00831799EA008450088100508000
B1332124709255N00831794EA008390087900408000
B1332174709235N00831785EA008330087400608000
B1332224709217N00831766EA008280086800708000
B1332274709199N00831742EA008260086200708000
B1332324709179N00831728EA008270086100608000
B1332374709161N00831721EA008250085900608000
B1332424709142N00831697EA008180085500508000
B1332474709123N00831674EA008130085000508000
B1332524709105N00831651EA008100084500508000
B1332574709091N00831630EA008110084400708000
B1333024709074N00831617EA008160084500608000
B1333074709062N00831595EA008190084600508000
B1333124709057N00831574EA008240084900508000
B1333174709078N00831586EA008250085300608000
B1333224709067N00831623EA008290085700608000
B1333274709043N00831625EA008340086400608000
B1333324709042N00831604EA008340086400508000
B1333374709055N00831578EA008260086300608000
B1333424709071N00831557EA008220086100308000
B1333474709096N00831545EA008230086100708000
B1333524709119N00831550EA008230085900608000
B1333574709129N00831588EA008240086000508000
B1334024709109N00831600EA008260086000808000
B1334074709115N00831578EA008250085900508000
B1334124709138N00831593EA008260086100608000
B1334174709140N00831633EA008270086000608000
B1334224709120N00831646EA008330086200708000
B1334274709123N00831626EA008310086100408000
B1334324709149N00831638EA008280086000608000
B1334374709155N00831685EA008280085900608000
B1334424709139N00831714EA008360086600408000
B1334474709144N00831704EA008420087100708000
B1334524709163N00831741EA008440087101108000
B1334574709145N00831754EA008510087701008000
B1335024709163N00831746EA008540087800608000
B1335074709176N00831795EA008570088001108000
B1335124709158N00831810EA008620088800908000
B1335174709152N00831797EA008660089300708000
B1335224709174N00831798EA008660089300508000
B1335274709173N00831846EA008660089200508000
B1335324709155N00831852EA008670089500608000
B1335374709138N00831848EA008680089600608000
B1335424709120N00831843EA008680089600708000
B1335474709100N00831840EA008650089400708000
B1335524709077N00831834EA008610089200608000
B1335574709054N00831830EA008580088800708000
B1336024709030N00831823EA008520088300608000
B1336074709003N00831819EA008440087600608000
B1336124708975N00831814EA008360087000608000
B1336174708950N00831806EA008330086400508000
B1336224708925N00831795EA008290086200508000
B1336274708904N00831776EA008290086000508000
B1336324708881N00831752EA008280085800508000
B1336374708859N00831735EA008270085800608000
B1336424708840N00831715EA008230085600608000
B1336474708823N00831696EA008280085700508000
B1336524708811N00831680EA008310085800608000
B1336574708803N00831659EA008280085600408000
B1337024708798N00831642EA008330085800308000
B1337074708788N00831629EA008320085900608000
B1337124708781N00831601EA008220085500508000
B1337174708779N00831574EA008170085200508000
B1337224708774N00831544EA008120084800408000
B1337274708766N00831517EA008100084300608000
B1337324708755N00831493EA008110084200608000
B1337374708742N00831471EA008120084100508000
B1337424708727N00831456EA008150084300408000
B1337474708712N00831436EA008090084100608000
B1337524708696N00831416EA008030083600708000
B1337574708682N00831390EA007950082800608000
B1338024708664N00831368EA007920082500608000
B1338074708642N00831350EA007860082000608000
B1338124708623N00831332EA007850081700608000
B1338174708601N00831346EA007890081700708000
B1338224708577N00831367EA007920081900708000
B1338274708560N00831368EA007960081900508000
B1338324708571N00831356EA007940081900408000
B1338374708588N00831350EA008000082300608000
B1338424708576N00831338EA008080083000908000
B1338474708560N00831374EA008100083400708000
B1338524708555N00831415EA008090083300708000
B1338574708538N00831410EA008110083501008000
B1339024708557N00831401EA008110083700508000
B1339074708574N00831392EA008160083900608000
B1339124708580N00831379EA008260084600608000
B1339174708560N00831376EA008300085000408000
B1339224708556N00831420EA008240084700408000
B1339274708540N00831444EA008170084400908000
B1339324708543N00831424EA008120084201008000
B1339374708560N00831404EA008090084000708000
B1339424708573N00831389EA008060083900408000
B1339474708591N00831372EA008030083700608000
B1339524708610N00831356EA007970083100608000
B1339574708612N00831332EA007920082400408000
B1340024708592N00831333EA007870081900408000
B1340074708568N00831359EA007790081100608000
B1340124708543N00831384EA007730080200608000
B1340174708517N00831404EA007690079600508000
B1340224708488N00831419EA007640079200408000
B1340274708473N00831398EA007580078700508000
B1340324708474N00831372EA007540078400408000
B1340374708483N00831344EA007500078100408000
B1340424708495N00831319EA007430077700608000
B1340474708508N00831296EA007370077200508000
B1340524708521N00831263EA007350076800608000
B1340574708521N00831230EA007370076600608000
B1341024708524N00831204EA007420076700608000
B1341074708542N00831203EA007350076100608000
B1341124708537N00831238EA007230074501108000
B1341174708515N00831214EA007200074200908000
B1341224708512N00831186EA007090073800708000
B1341274708518N00831157EA006980073100508000
B1341324708529N00831117EA006850072200608000
B1341374708541N00831096EA006850071700508000
B1341424708557N00831065EA006700070900608000
B1341474708577N00831039EA006590069300808000
B1341524708603N00831021EA006440067700408000
B1341574708632N00831014EA006320065800608000
B1342024708665N00831004EA006270064900608000
B1342074708691N00831003EA006280064900608000
B1342124708721N00831005EA006210064400608000
B1342174708750N00831005EA006110063700608000
B1342224708779N00831004EA005990062500508000
B1342274708806N00830997EA005850061100508000
B1342324708833N00830988EA005720059700508000
B1342374708862N00830980EA005620058600508000
B1342424708895N00830980EA005540057800608000
B1342474708922N00830979EA005500057200508000
B1342524708946N00830992EA005460056800608000
B1342574708972N00830982EA005390056200508000
B1343024709000N00830972EA005350055900508000
B1343074709024N00830958EA005320055600508000
B1343124709048N00830943EA005260055100508000
B1343174709075N00830952EA005250054900608000
B1343224709098N00830973EA005230054700608000
B1343274709115N00831005EA005230054600408000
B1343324709124N00831034EA005230054400508000
B1343374709110N00831055EA005180054100808000
B1343424709090N00831056EA005080053300708000
B1343474709076N00831031EA005020052800608000
B1343524709064N00831022EA005010052600608000
B1343574709049N00831045EA004940052200508000
B1344024709030N00831038EA004870051700808000
B1344074709021N00831039EA004830051500708000
B1344124709022N00831038EA004830051300608000
B1344174709022N00831038EA004830051300508000
B1344224709022N00831038EA004830051200408000
B1344274709022N00831038EA004830051200408000
B1344324709023N00831038EA004820051100408000
B1344374709023N00831038EA004820051000408000
B1344424709023N00831038EA004820051100408000
B1344474709023N00831038EA004820051100308000
F13445206121424252931
B1344524709023N00831038EA004820051000407000
F1344570206121424252931
B1344574709023N00831039EA004820050900508000
B1345024709023N00831038EA004820050900608000
GA79BD309947AC03B1D6B86DFC08EBE86A0107F0A399636481F7AC1747EEB2C9A
